{
  "abi": [
    {
      "inputs": [],
      "stateMutability": "nonpayable",
      "type": "constructor"
    },
    {
      "anonymous": false,
      "inputs": [
        {
          "indexed": true,
          "internalType": "address",
          "name": "previousOwner",
          "type": "address"
        },
        {
          "indexed": true,
          "internalType": "address",
          "name": "newOwner",
          "type": "address"
        }
      ],
      "name": "OwnershipTransferred",
      "type": "event"
    },
    {
      "inputs": [],
      "name": "admin",
      "outputs": [
        {
          "internalType": "address",
          "name": "",
          "type": "address"
        }
      ],
      "stateMutability": "view",
      "type": "function"
    },
    {
      "inputs": [
        {
          "internalType": "address",
          "name": "_token",
          "type": "address"
        },
        {
          "internalType": "uint256",
          "name": "_amount",
          "type": "uint256"
        }
      ],
      "name": "contribute",
      "outputs": [],
      "stateMutability": "nonpayable",
      "type": "function"
    },
    {
      "inputs": [
        {
          "internalType": "address",
          "name": "",
          "type": "address"
        },
        {
          "internalType": "address",
          "name": "",
          "type": "address"
        }
      ],
      "name": "contributions",
      "outputs": [
        {
          "internalType": "uint256",
          "name": "",
          "type": "uint256"
        }
      ],
      "stateMutability": "view",
      "type": "function"
    },
    {
      "inputs": [
        {
          "internalType": "uint256",
          "name": "",
          "type": "uint256"
        }
      ],
      "name": "contributors",
      "outputs": [
        {
          "internalType": "address",
          "name": "",
          "type": "address"
        }
      ],
      "stateMutability": "view",
      "type": "function"
    },
    {
      "inputs": [
        {
          "internalType": "address",
          "name": "_token",
          "type": "address"
        },
        {
          "internalType": "address",
          "name": "_beneficiary",
          "type": "address"
        },
        {
          "internalType": "uint256",
          "name": "_amount",
          "type": "uint256"
        }
      ],
      "name": "distribute",
      "outputs": [],
      "stateMutability": "nonpayable",
      "type": "function"
    },
    {
      "inputs": [],
      "name": "getLendingPool",
      "outputs": [
        {
          "internalType": "contract ILendingPool",
          "name": "",
          "type": "address"
        }
      ],
      "stateMutability": "nonpayable",
      "type": "function"
    },
    {
      "inputs": [],
      "name": "lendingPool",
      "outputs": [
        {
          "internalType": "contract ILendingPool",
          "name": "",
          "type": "address"
        }
      ],
      "stateMutability": "view",
      "type": "function"
    },
    {
      "inputs": [],
      "name": "owner",
      "outputs": [
        {
          "internalType": "address",
          "name": "",
          "type": "address"
        }
      ],
      "stateMutability": "view",
      "type": "function"
    },
    {
      "inputs": [],
      "name": "poolAddress",
      "outputs": [
        {
          "internalType": "address",
          "name": "",
          "type": "address"
        }
      ],
      "stateMutability": "view",
      "type": "function"
    },
    {
      "inputs": [
        {
          "internalType": "address",
          "name": "_token",
          "type": "address"
        },
        {
          "internalType": "uint256",
          "name": "_amount",
          "type": "uint256"
        }
      ],
      "name": "poolDeposit",
      "outputs": [],
      "stateMutability": "nonpayable",
      "type": "function"
    },
    {
      "inputs": [],
      "name": "poolProvider",
      "outputs": [
        {
          "internalType": "contract ILendingPoolAddressesProvider",
          "name": "",
          "type": "address"
        }
      ],
      "stateMutability": "view",
      "type": "function"
    },
    {
      "inputs": [
        {
          "internalType": "address",
          "name": "_token",
          "type": "address"
        },
        {
          "internalType": "uint256",
          "name": "_amount",
          "type": "uint256"
        }
      ],
      "name": "poolRefund",
      "outputs": [],
      "stateMutability": "nonpayable",
      "type": "function"
    },
    {
      "inputs": [],
      "name": "renounceOwnership",
      "outputs": [],
      "stateMutability": "nonpayable",
      "type": "function"
    },
    {
      "inputs": [
        {
          "internalType": "address",
          "name": "_poolProvider",
          "type": "address"
        }
      ],
      "name": "setPoolProvider",
      "outputs": [],
      "stateMutability": "nonpayable",
      "type": "function"
    },
    {
      "inputs": [
        {
          "internalType": "address",
          "name": "newOwner",
          "type": "address"
        }
      ],
      "name": "transferOwnership",
      "outputs": [],
      "stateMutability": "nonpayable",
      "type": "function"
    }
  ],
  "bytecode": "608060405234801561001057600080fd5b5061001a33610031565b600180546001600160a01b03191633179055610081565b600080546001600160a01b038381166001600160a01b0319831681178455604051919092169283917f8be0079c531659141344cd1fd0a4f28419497f9722a3daafe3b4186f6b6457e09190a35050565b610c3b806100906000396000f3fe608060405234801561001057600080fd5b50600436106100f55760003560e01c80638598f9c311610097578063a59a997311610066578063a59a9973146101f8578063f2fde38b1461020b578063f4b34cc91461021e578063f851a4401461023157600080fd5b80638598f9c3146101ae5780638da5cb5b146101c1578063a16a9183146101d2578063a4aa8ebb146101e557600080fd5b80633cb5d100116100d35780633cb5d1001461016b578063715018a61461017e57806377ba7950146101885780638418cd991461019b57600080fd5b80630261bf8b146100fa5780631755ff211461011f57806329369ccf14610132575b600080fd5b610102610244565b6040516001600160a01b0390911681526020015b60405180910390f35b600454610102906001600160a01b031681565b61015d610140366004610a50565b600360209081526000928352604080842090915290825290205481565b604051908152602001610116565b610102610179366004610a89565b6102d6565b610186610300565b005b610186610196366004610aa2565b61033f565b6101866101a9366004610aa2565b61058c565b600654610102906001600160a01b031681565b6000546001600160a01b0316610102565b6101866101e0366004610ace565b6106d1565b6101866101f3366004610b0f565b610774565b600554610102906001600160a01b031681565b610186610219366004610b0f565b6107c0565b61018661022c366004610aa2565b61085b565b600154610102906001600160a01b031681565b60065460408051630261bf8b60e01b815290516000926001600160a01b031691630261bf8b9160048083019260209291908290030181865afa15801561028e573d6000803e3d6000fd5b505050506040513d601f19601f820116820180604052508101906102b29190610b33565b600480546001600160a01b0319166001600160a01b03929092169182179055919050565b600281815481106102e657600080fd5b6000918252602090912001546001600160a01b0316905081565b6000546001600160a01b031633146103335760405162461bcd60e51b815260040161032a90610b50565b60405180910390fd5b61033d60006109eb565b565b6000811161038f5760405162461bcd60e51b815260206004820152601c60248201527f596f75206e65656420746f207370656e6420736f6d657468696e672e00000000604482015260640161032a565b6040516323b872dd60e01b8152336004820152306024820152604481018290526001600160a01b038316906323b872dd906064016020604051808303816000875af11580156103e2573d6000803e3d6000fd5b505050506040513d601f19601f820116820180604052508101906104069190610b85565b5060028054600181019091557f405787fa12a823e0f2b7631cc41b3ba8828b3321ca811111fa75cd3aa3bb5ace0180546001600160a01b031916339081179091556001600160a01b0383166000908152600360209081526040808320938352929052908120805483929061047b908490610bbd565b909155506104899050610244565b600580546001600160a01b0319166001600160a01b0392831690811790915560405163095ea7b360e01b81526004810191909152602481018390529083169063095ea7b3906044016020604051808303816000875af11580156104f0573d6000803e3d6000fd5b505050506040513d601f19601f820116820180604052508101906105149190610b85565b5060055460405163e8eda9df60e01b81526001600160a01b03848116600483015260248201849052306044830152600060648301529091169063e8eda9df90608401600060405180830381600087803b15801561057057600080fd5b505af1158015610584573d6000803e3d6000fd5b505050505050565b600081116105dc5760405162461bcd60e51b815260206004820152601c60248201527f596f75206e65656420746f207370656e6420736f6d657468696e672e00000000604482015260640161032a565b6040516323b872dd60e01b8152336004820152306024820152604481018290526001600160a01b038316906323b872dd906064016020604051808303816000875af115801561062f573d6000803e3d6000fd5b505050506040513d601f19601f820116820180604052508101906106539190610b85565b5060028054600181019091557f405787fa12a823e0f2b7631cc41b3ba8828b3321ca811111fa75cd3aa3bb5ace0180546001600160a01b031916339081179091556001600160a01b038316600090815260036020908152604080832093835292905290812080548392906106c8908490610bbd565b90915550505050565b6000546001600160a01b031633146106fb5760405162461bcd60e51b815260040161032a90610b50565b60405163a9059cbb60e01b81526001600160a01b0383811660048301526024820183905284169063a9059cbb906044016020604051808303816000875af115801561074a573d6000803e3d6000fd5b505050506040513d601f19601f8201168201806040525081019061076e9190610b85565b50505050565b6000546001600160a01b0316331461079e5760405162461bcd60e51b815260040161032a90610b50565b600680546001600160a01b0319166001600160a01b0392909216919091179055565b6000546001600160a01b031633146107ea5760405162461bcd60e51b815260040161032a90610b50565b6001600160a01b03811661084f5760405162461bcd60e51b815260206004820152602660248201527f4f776e61626c653a206e6577206f776e657220697320746865207a65726f206160448201526564647265737360d01b606482015260840161032a565b610858816109eb565b50565b600081116108ab5760405162461bcd60e51b815260206004820152601f60248201527f596f75206e65656420746f20776974686472617720736f6d657468696e672e00604482015260640161032a565b6001600160a01b038216600090815260036020908152604080832033845290915290205481111561093a5760405162461bcd60e51b815260206004820152603360248201527f596f752063616e6e6f74207769746864726177206d6f7265207468616e207768604482015272617420796f7520636f6e74726962757465642160681b606482015260840161032a565b600554604051631a4ca37b60e21b81526001600160a01b03848116600483015260248201849052336044830152909116906369328dec906064016020604051808303816000875af1158015610993573d6000803e3d6000fd5b505050506040513d601f19601f820116820180604052508101906109b79190610bd5565b506001600160a01b0382166000908152600360209081526040808320338452909152812080548392906106c8908490610bee565b600080546001600160a01b038381166001600160a01b0319831681178455604051919092169283917f8be0079c531659141344cd1fd0a4f28419497f9722a3daafe3b4186f6b6457e09190a35050565b6001600160a01b038116811461085857600080fd5b60008060408385031215610a6357600080fd5b8235610a6e81610a3b565b91506020830135610a7e81610a3b565b809150509250929050565b600060208284031215610a9b57600080fd5b5035919050565b60008060408385031215610ab557600080fd5b8235610ac081610a3b565b946020939093013593505050565b600080600060608486031215610ae357600080fd5b8335610aee81610a3b565b92506020840135610afe81610a3b565b929592945050506040919091013590565b600060208284031215610b2157600080fd5b8135610b2c81610a3b565b9392505050565b600060208284031215610b4557600080fd5b8151610b2c81610a3b565b6020808252818101527f4f776e61626c653a2063616c6c6572206973206e6f7420746865206f776e6572604082015260600190565b600060208284031215610b9757600080fd5b81518015158114610b2c57600080fd5b634e487b7160e01b600052601160045260246000fd5b60008219821115610bd057610bd0610ba7565b500190565b600060208284031215610be757600080fd5b5051919050565b600082821015610c0057610c00610ba7565b50039056fea264697066735822122077ac4bc0150a1dcb4bfbbcb27655c8be741c3d6b6fd880df1314b738253bb0cd64736f6c634300080a0033",
  "bytecodeSha1": "7691150891307493d3202fc62396bfd3fa395ce0",
  "compiler": {
    "evm_version": "istanbul",
    "optimizer": {
      "enabled": true,
      "runs": 200
    },
    "version": "0.8.10+commit.fc410830"
  },
  "contractName": "ContributorLender",
  "language": "Solidity",
  "natspec": {
    "kind": "dev",
    "methods": {
      "owner()": {
        "details": "Returns the address of the current owner."
      },
      "renounceOwnership()": {
        "details": "Leaves the contract without owner. It will not be possible to call `onlyOwner` functions anymore. Can only be called by the current owner. NOTE: Renouncing ownership will leave the contract without an owner, thereby removing any functionality that is only available to the owner."
      },
      "transferOwnership(address)": {
        "details": "Transfers ownership of the contract to a new account (`newOwner`). Can only be called by the current owner."
      }
    },
    "version": 1
  },
  "opcodes": "PUSH1 0x80 PUSH1 0x40 MSTORE CALLVALUE DUP1 ISZERO PUSH2 0x10 JUMPI PUSH1 0x0 DUP1 REVERT JUMPDEST POP PUSH1 0x4 CALLDATASIZE LT PUSH2 0xF5 JUMPI PUSH1 0x0 CALLDATALOAD PUSH1 0xE0 SHR DUP1 PUSH4 0x8598F9C3 GT PUSH2 0x97 JUMPI DUP1 PUSH4 0xA59A9973 GT PUSH2 0x66 JUMPI DUP1 PUSH4 0xA59A9973 EQ PUSH2 0x1F8 JUMPI DUP1 PUSH4 0xF2FDE38B EQ PUSH2 0x20B JUMPI DUP1 PUSH4 0xF4B34CC9 EQ PUSH2 0x21E JUMPI DUP1 PUSH4 0xF851A440 EQ PUSH2 0x231 JUMPI PUSH1 0x0 DUP1 REVERT JUMPDEST DUP1 PUSH4 0x8598F9C3 EQ PUSH2 0x1AE JUMPI DUP1 PUSH4 0x8DA5CB5B EQ PUSH2 0x1C1 JUMPI DUP1 PUSH4 0xA16A9183 EQ PUSH2 0x1D2 JUMPI DUP1 PUSH4 0xA4AA8EBB EQ PUSH2 0x1E5 JUMPI PUSH1 0x0 DUP1 REVERT JUMPDEST DUP1 PUSH4 0x3CB5D100 GT PUSH2 0xD3 JUMPI DUP1 PUSH4 0x3CB5D100 EQ PUSH2 0x16B JUMPI DUP1 PUSH4 0x715018A6 EQ PUSH2 0x17E JUMPI DUP1 PUSH4 0x77BA7950 EQ PUSH2 0x188 JUMPI DUP1 PUSH4 0x8418CD99 EQ PUSH2 0x19B JUMPI PUSH1 0x0 DUP1 REVERT JUMPDEST DUP1 PUSH4 0x261BF8B EQ PUSH2 0xFA JUMPI DUP1 PUSH4 0x1755FF21 EQ PUSH2 0x11F JUMPI DUP1 PUSH4 0x29369CCF EQ PUSH2 0x132 JUMPI JUMPDEST PUSH1 0x0 DUP1 REVERT JUMPDEST PUSH2 0x102 PUSH2 0x244 JUMP JUMPDEST PUSH1 0x40 MLOAD PUSH1 0x1 PUSH1 0x1 PUSH1 0xA0 SHL SUB SWAP1 SWAP2 AND DUP2 MSTORE PUSH1 0x20 ADD JUMPDEST PUSH1 0x40 MLOAD DUP1 SWAP2 SUB SWAP1 RETURN JUMPDEST PUSH1 0x4 SLOAD PUSH2 0x102 SWAP1 PUSH1 0x1 PUSH1 0x1 PUSH1 0xA0 SHL SUB AND DUP2 JUMP JUMPDEST PUSH2 0x15D PUSH2 0x140 CALLDATASIZE PUSH1 0x4 PUSH2 0xA50 JUMP JUMPDEST PUSH1 0x3 PUSH1 0x20 SWAP1 DUP2 MSTORE PUSH1 0x0 SWAP3 DUP4 MSTORE PUSH1 0x40 DUP1 DUP5 KECCAK256 SWAP1 SWAP2 MSTORE SWAP1 DUP3 MSTORE SWAP1 KECCAK256 SLOAD DUP2 JUMP JUMPDEST PUSH1 0x40 MLOAD SWAP1 DUP2 MSTORE PUSH1 0x20 ADD PUSH2 0x116 JUMP JUMPDEST PUSH2 0x102 PUSH2 0x179 CALLDATASIZE PUSH1 0x4 PUSH2 0xA89 JUMP JUMPDEST PUSH2 0x2D6 JUMP JUMPDEST PUSH2 0x186 PUSH2 0x300 JUMP JUMPDEST STOP JUMPDEST PUSH2 0x186 PUSH2 0x196 CALLDATASIZE PUSH1 0x4 PUSH2 0xAA2 JUMP JUMPDEST PUSH2 0x33F JUMP JUMPDEST PUSH2 0x186 PUSH2 0x1A9 CALLDATASIZE PUSH1 0x4 PUSH2 0xAA2 JUMP JUMPDEST PUSH2 0x58C JUMP JUMPDEST PUSH1 0x6 SLOAD PUSH2 0x102 SWAP1 PUSH1 0x1 PUSH1 0x1 PUSH1 0xA0 SHL SUB AND DUP2 JUMP JUMPDEST PUSH1 0x0 SLOAD PUSH1 0x1 PUSH1 0x1 PUSH1 0xA0 SHL SUB AND PUSH2 0x102 JUMP JUMPDEST PUSH2 0x186 PUSH2 0x1E0 CALLDATASIZE PUSH1 0x4 PUSH2 0xACE JUMP JUMPDEST PUSH2 0x6D1 JUMP JUMPDEST PUSH2 0x186 PUSH2 0x1F3 CALLDATASIZE PUSH1 0x4 PUSH2 0xB0F JUMP JUMPDEST PUSH2 0x774 JUMP JUMPDEST PUSH1 0x5 SLOAD PUSH2 0x102 SWAP1 PUSH1 0x1 PUSH1 0x1 PUSH1 0xA0 SHL SUB AND DUP2 JUMP JUMPDEST PUSH2 0x186 PUSH2 0x219 CALLDATASIZE PUSH1 0x4 PUSH2 0xB0F JUMP JUMPDEST PUSH2 0x7C0 JUMP JUMPDEST PUSH2 0x186 PUSH2 0x22C CALLDATASIZE PUSH1 0x4 PUSH2 0xAA2 JUMP JUMPDEST PUSH2 0x85B JUMP JUMPDEST PUSH1 0x1 SLOAD PUSH2 0x102 SWAP1 PUSH1 0x1 PUSH1 0x1 PUSH1 0xA0 SHL SUB AND DUP2 JUMP JUMPDEST PUSH1 0x6 SLOAD PUSH1 0x40 DUP1 MLOAD PUSH4 0x261BF8B PUSH1 0xE0 SHL DUP2 MSTORE SWAP1 MLOAD PUSH1 0x0 SWAP3 PUSH1 0x1 PUSH1 0x1 PUSH1 0xA0 SHL SUB AND SWAP2 PUSH4 0x261BF8B SWAP2 PUSH1 0x4 DUP1 DUP4 ADD SWAP3 PUSH1 0x20 SWAP3 SWAP2 SWAP1 DUP3 SWAP1 SUB ADD DUP2 DUP7 GAS STATICCALL ISZERO DUP1 ISZERO PUSH2 0x28E JUMPI RETURNDATASIZE PUSH1 0x0 DUP1 RETURNDATACOPY RETURNDATASIZE PUSH1 0x0 REVERT JUMPDEST POP POP POP POP PUSH1 0x40 MLOAD RETURNDATASIZE PUSH1 0x1F NOT PUSH1 0x1F DUP3 ADD AND DUP3 ADD DUP1 PUSH1 0x40 MSTORE POP DUP2 ADD SWAP1 PUSH2 0x2B2 SWAP2 SWAP1 PUSH2 0xB33 JUMP JUMPDEST PUSH1 0x4 DUP1 SLOAD PUSH1 0x1 PUSH1 0x1 PUSH1 0xA0 SHL SUB NOT AND PUSH1 0x1 PUSH1 0x1 PUSH1 0xA0 SHL SUB SWAP3 SWAP1 SWAP3 AND SWAP2 DUP3 OR SWAP1 SSTORE SWAP2 SWAP1 POP JUMP JUMPDEST PUSH1 0x2 DUP2 DUP2 SLOAD DUP2 LT PUSH2 0x2E6 JUMPI PUSH1 0x0 DUP1 REVERT JUMPDEST PUSH1 0x0 SWAP2 DUP3 MSTORE PUSH1 0x20 SWAP1 SWAP2 KECCAK256 ADD SLOAD PUSH1 0x1 PUSH1 0x1 PUSH1 0xA0 SHL SUB AND SWAP1 POP DUP2 JUMP JUMPDEST PUSH1 0x0 SLOAD PUSH1 0x1 PUSH1 0x1 PUSH1 0xA0 SHL SUB AND CALLER EQ PUSH2 0x333 JUMPI PUSH1 0x40 MLOAD PUSH3 0x461BCD PUSH1 0xE5 SHL DUP2 MSTORE PUSH1 0x4 ADD PUSH2 0x32A SWAP1 PUSH2 0xB50 JUMP JUMPDEST PUSH1 0x40 MLOAD DUP1 SWAP2 SUB SWAP1 REVERT JUMPDEST PUSH2 0x33D PUSH1 0x0 PUSH2 0x9EB JUMP JUMPDEST JUMP JUMPDEST PUSH1 0x0 DUP2 GT PUSH2 0x38F JUMPI PUSH1 0x40 MLOAD PUSH3 0x461BCD PUSH1 0xE5 SHL DUP2 MSTORE PUSH1 0x20 PUSH1 0x4 DUP3 ADD MSTORE PUSH1 0x1C PUSH1 0x24 DUP3 ADD MSTORE PUSH32 0x596F75206E65656420746F207370656E6420736F6D657468696E672E00000000 PUSH1 0x44 DUP3 ADD MSTORE PUSH1 0x64 ADD PUSH2 0x32A JUMP JUMPDEST PUSH1 0x40 MLOAD PUSH4 0x23B872DD PUSH1 0xE0 SHL DUP2 MSTORE CALLER PUSH1 0x4 DUP3 ADD MSTORE ADDRESS PUSH1 0x24 DUP3 ADD MSTORE PUSH1 0x44 DUP2 ADD DUP3 SWAP1 MSTORE PUSH1 0x1 PUSH1 0x1 PUSH1 0xA0 SHL SUB DUP4 AND SWAP1 PUSH4 0x23B872DD SWAP1 PUSH1 0x64 ADD PUSH1 0x20 PUSH1 0x40 MLOAD DUP1 DUP4 SUB DUP2 PUSH1 0x0 DUP8 GAS CALL ISZERO DUP1 ISZERO PUSH2 0x3E2 JUMPI RETURNDATASIZE PUSH1 0x0 DUP1 RETURNDATACOPY RETURNDATASIZE PUSH1 0x0 REVERT JUMPDEST POP POP POP POP PUSH1 0x40 MLOAD RETURNDATASIZE PUSH1 0x1F NOT PUSH1 0x1F DUP3 ADD AND DUP3 ADD DUP1 PUSH1 0x40 MSTORE POP DUP2 ADD SWAP1 PUSH2 0x406 SWAP2 SWAP1 PUSH2 0xB85 JUMP JUMPDEST POP PUSH1 0x2 DUP1 SLOAD PUSH1 0x1 DUP2 ADD SWAP1 SWAP2 SSTORE PUSH32 0x405787FA12A823E0F2B7631CC41B3BA8828B3321CA811111FA75CD3AA3BB5ACE ADD DUP1 SLOAD PUSH1 0x1 PUSH1 0x1 PUSH1 0xA0 SHL SUB NOT AND CALLER SWAP1 DUP2 OR SWAP1 SWAP2 SSTORE PUSH1 0x1 PUSH1 0x1 PUSH1 0xA0 SHL SUB DUP4 AND PUSH1 0x0 SWAP1 DUP2 MSTORE PUSH1 0x3 PUSH1 0x20 SWAP1 DUP2 MSTORE PUSH1 0x40 DUP1 DUP4 KECCAK256 SWAP4 DUP4 MSTORE SWAP3 SWAP1 MSTORE SWAP1 DUP2 KECCAK256 DUP1 SLOAD DUP4 SWAP3 SWAP1 PUSH2 0x47B SWAP1 DUP5 SWAP1 PUSH2 0xBBD JUMP JUMPDEST SWAP1 SWAP2 SSTORE POP PUSH2 0x489 SWAP1 POP PUSH2 0x244 JUMP JUMPDEST PUSH1 0x5 DUP1 SLOAD PUSH1 0x1 PUSH1 0x1 PUSH1 0xA0 SHL SUB NOT AND PUSH1 0x1 PUSH1 0x1 PUSH1 0xA0 SHL SUB SWAP3 DUP4 AND SWAP1 DUP2 OR SWAP1 SWAP2 SSTORE PUSH1 0x40 MLOAD PUSH4 0x95EA7B3 PUSH1 0xE0 SHL DUP2 MSTORE PUSH1 0x4 DUP2 ADD SWAP2 SWAP1 SWAP2 MSTORE PUSH1 0x24 DUP2 ADD DUP4 SWAP1 MSTORE SWAP1 DUP4 AND SWAP1 PUSH4 0x95EA7B3 SWAP1 PUSH1 0x44 ADD PUSH1 0x20 PUSH1 0x40 MLOAD DUP1 DUP4 SUB DUP2 PUSH1 0x0 DUP8 GAS CALL ISZERO DUP1 ISZERO PUSH2 0x4F0 JUMPI RETURNDATASIZE PUSH1 0x0 DUP1 RETURNDATACOPY RETURNDATASIZE PUSH1 0x0 REVERT JUMPDEST POP POP POP POP PUSH1 0x40 MLOAD RETURNDATASIZE PUSH1 0x1F NOT PUSH1 0x1F DUP3 ADD AND DUP3 ADD DUP1 PUSH1 0x40 MSTORE POP DUP2 ADD SWAP1 PUSH2 0x514 SWAP2 SWAP1 PUSH2 0xB85 JUMP JUMPDEST POP PUSH1 0x5 SLOAD PUSH1 0x40 MLOAD PUSH4 0xE8EDA9DF PUSH1 0xE0 SHL DUP2 MSTORE PUSH1 0x1 PUSH1 0x1 PUSH1 0xA0 SHL SUB DUP5 DUP2 AND PUSH1 0x4 DUP4 ADD MSTORE PUSH1 0x24 DUP3 ADD DUP5 SWAP1 MSTORE ADDRESS PUSH1 0x44 DUP4 ADD MSTORE PUSH1 0x0 PUSH1 0x64 DUP4 ADD MSTORE SWAP1 SWAP2 AND SWAP1 PUSH4 0xE8EDA9DF SWAP1 PUSH1 0x84 ADD PUSH1 0x0 PUSH1 0x40 MLOAD DUP1 DUP4 SUB DUP2 PUSH1 0x0 DUP8 DUP1 EXTCODESIZE ISZERO DUP1 ISZERO PUSH2 0x570 JUMPI PUSH1 0x0 DUP1 REVERT JUMPDEST POP GAS CALL ISZERO DUP1 ISZERO PUSH2 0x584 JUMPI RETURNDATASIZE PUSH1 0x0 DUP1 RETURNDATACOPY RETURNDATASIZE PUSH1 0x0 REVERT JUMPDEST POP POP POP POP POP POP JUMP JUMPDEST PUSH1 0x0 DUP2 GT PUSH2 0x5DC JUMPI PUSH1 0x40 MLOAD PUSH3 0x461BCD PUSH1 0xE5 SHL DUP2 MSTORE PUSH1 0x20 PUSH1 0x4 DUP3 ADD MSTORE PUSH1 0x1C PUSH1 0x24 DUP3 ADD MSTORE PUSH32 0x596F75206E65656420746F207370656E6420736F6D657468696E672E00000000 PUSH1 0x44 DUP3 ADD MSTORE PUSH1 0x64 ADD PUSH2 0x32A JUMP JUMPDEST PUSH1 0x40 MLOAD PUSH4 0x23B872DD PUSH1 0xE0 SHL DUP2 MSTORE CALLER PUSH1 0x4 DUP3 ADD MSTORE ADDRESS PUSH1 0x24 DUP3 ADD MSTORE PUSH1 0x44 DUP2 ADD DUP3 SWAP1 MSTORE PUSH1 0x1 PUSH1 0x1 PUSH1 0xA0 SHL SUB DUP4 AND SWAP1 PUSH4 0x23B872DD SWAP1 PUSH1 0x64 ADD PUSH1 0x20 PUSH1 0x40 MLOAD DUP1 DUP4 SUB DUP2 PUSH1 0x0 DUP8 GAS CALL ISZERO DUP1 ISZERO PUSH2 0x62F JUMPI RETURNDATASIZE PUSH1 0x0 DUP1 RETURNDATACOPY RETURNDATASIZE PUSH1 0x0 REVERT JUMPDEST POP POP POP POP PUSH1 0x40 MLOAD RETURNDATASIZE PUSH1 0x1F NOT PUSH1 0x1F DUP3 ADD AND DUP3 ADD DUP1 PUSH1 0x40 MSTORE POP DUP2 ADD SWAP1 PUSH2 0x653 SWAP2 SWAP1 PUSH2 0xB85 JUMP JUMPDEST POP PUSH1 0x2 DUP1 SLOAD PUSH1 0x1 DUP2 ADD SWAP1 SWAP2 SSTORE PUSH32 0x405787FA12A823E0F2B7631CC41B3BA8828B3321CA811111FA75CD3AA3BB5ACE ADD DUP1 SLOAD PUSH1 0x1 PUSH1 0x1 PUSH1 0xA0 SHL SUB NOT AND CALLER SWAP1 DUP2 OR SWAP1 SWAP2 SSTORE PUSH1 0x1 PUSH1 0x1 PUSH1 0xA0 SHL SUB DUP4 AND PUSH1 0x0 SWAP1 DUP2 MSTORE PUSH1 0x3 PUSH1 0x20 SWAP1 DUP2 MSTORE PUSH1 0x40 DUP1 DUP4 KECCAK256 SWAP4 DUP4 MSTORE SWAP3 SWAP1 MSTORE SWAP1 DUP2 KECCAK256 DUP1 SLOAD DUP4 SWAP3 SWAP1 PUSH2 0x6C8 SWAP1 DUP5 SWAP1 PUSH2 0xBBD JUMP JUMPDEST SWAP1 SWAP2 SSTORE POP POP POP POP JUMP JUMPDEST PUSH1 0x0 SLOAD PUSH1 0x1 PUSH1 0x1 PUSH1 0xA0 SHL SUB AND CALLER EQ PUSH2 0x6FB JUMPI PUSH1 0x40 MLOAD PUSH3 0x461BCD PUSH1 0xE5 SHL DUP2 MSTORE PUSH1 0x4 ADD PUSH2 0x32A SWAP1 PUSH2 0xB50 JUMP JUMPDEST PUSH1 0x40 MLOAD PUSH4 0xA9059CBB PUSH1 0xE0 SHL DUP2 MSTORE PUSH1 0x1 PUSH1 0x1 PUSH1 0xA0 SHL SUB DUP4 DUP2 AND PUSH1 0x4 DUP4 ADD MSTORE PUSH1 0x24 DUP3 ADD DUP4 SWAP1 MSTORE DUP5 AND SWAP1 PUSH4 0xA9059CBB SWAP1 PUSH1 0x44 ADD PUSH1 0x20 PUSH1 0x40 MLOAD DUP1 DUP4 SUB DUP2 PUSH1 0x0 DUP8 GAS CALL ISZERO DUP1 ISZERO PUSH2 0x74A JUMPI RETURNDATASIZE PUSH1 0x0 DUP1 RETURNDATACOPY RETURNDATASIZE PUSH1 0x0 REVERT JUMPDEST POP POP POP POP PUSH1 0x40 MLOAD RETURNDATASIZE PUSH1 0x1F NOT PUSH1 0x1F DUP3 ADD AND DUP3 ADD DUP1 PUSH1 0x40 MSTORE POP DUP2 ADD SWAP1 PUSH2 0x76E SWAP2 SWAP1 PUSH2 0xB85 JUMP JUMPDEST POP POP POP POP JUMP JUMPDEST PUSH1 0x0 SLOAD PUSH1 0x1 PUSH1 0x1 PUSH1 0xA0 SHL SUB AND CALLER EQ PUSH2 0x79E JUMPI PUSH1 0x40 MLOAD PUSH3 0x461BCD PUSH1 0xE5 SHL DUP2 MSTORE PUSH1 0x4 ADD PUSH2 0x32A SWAP1 PUSH2 0xB50 JUMP JUMPDEST PUSH1 0x6 DUP1 SLOAD PUSH1 0x1 PUSH1 0x1 PUSH1 0xA0 SHL SUB NOT AND PUSH1 0x1 PUSH1 0x1 PUSH1 0xA0 SHL SUB SWAP3 SWAP1 SWAP3 AND SWAP2 SWAP1 SWAP2 OR SWAP1 SSTORE JUMP JUMPDEST PUSH1 0x0 SLOAD PUSH1 0x1 PUSH1 0x1 PUSH1 0xA0 SHL SUB AND CALLER EQ PUSH2 0x7EA JUMPI PUSH1 0x40 MLOAD PUSH3 0x461BCD PUSH1 0xE5 SHL DUP2 MSTORE PUSH1 0x4 ADD PUSH2 0x32A SWAP1 PUSH2 0xB50 JUMP JUMPDEST PUSH1 0x1 PUSH1 0x1 PUSH1 0xA0 SHL SUB DUP2 AND PUSH2 0x84F JUMPI PUSH1 0x40 MLOAD PUSH3 0x461BCD PUSH1 0xE5 SHL DUP2 MSTORE PUSH1 0x20 PUSH1 0x4 DUP3 ADD MSTORE PUSH1 0x26 PUSH1 0x24 DUP3 ADD MSTORE PUSH32 0x4F776E61626C653A206E6577206F776E657220697320746865207A65726F2061 PUSH1 0x44 DUP3 ADD MSTORE PUSH6 0x646472657373 PUSH1 0xD0 SHL PUSH1 0x64 DUP3 ADD MSTORE PUSH1 0x84 ADD PUSH2 0x32A JUMP JUMPDEST PUSH2 0x858 DUP2 PUSH2 0x9EB JUMP JUMPDEST POP JUMP JUMPDEST PUSH1 0x0 DUP2 GT PUSH2 0x8AB JUMPI PUSH1 0x40 MLOAD PUSH3 0x461BCD PUSH1 0xE5 SHL DUP2 MSTORE PUSH1 0x20 PUSH1 0x4 DUP3 ADD MSTORE PUSH1 0x1F PUSH1 0x24 DUP3 ADD MSTORE PUSH32 0x596F75206E65656420746F20776974686472617720736F6D657468696E672E00 PUSH1 0x44 DUP3 ADD MSTORE PUSH1 0x64 ADD PUSH2 0x32A JUMP JUMPDEST PUSH1 0x1 PUSH1 0x1 PUSH1 0xA0 SHL SUB DUP3 AND PUSH1 0x0 SWAP1 DUP2 MSTORE PUSH1 0x3 PUSH1 0x20 SWAP1 DUP2 MSTORE PUSH1 0x40 DUP1 DUP4 KECCAK256 CALLER DUP5 MSTORE SWAP1 SWAP2 MSTORE SWAP1 KECCAK256 SLOAD DUP2 GT ISZERO PUSH2 0x93A JUMPI PUSH1 0x40 MLOAD PUSH3 0x461BCD PUSH1 0xE5 SHL DUP2 MSTORE PUSH1 0x20 PUSH1 0x4 DUP3 ADD MSTORE PUSH1 0x33 PUSH1 0x24 DUP3 ADD MSTORE PUSH32 0x596F752063616E6E6F74207769746864726177206D6F7265207468616E207768 PUSH1 0x44 DUP3 ADD MSTORE PUSH19 0x617420796F7520636F6E747269627574656421 PUSH1 0x68 SHL PUSH1 0x64 DUP3 ADD MSTORE PUSH1 0x84 ADD PUSH2 0x32A JUMP JUMPDEST PUSH1 0x5 SLOAD PUSH1 0x40 MLOAD PUSH4 0x1A4CA37B PUSH1 0xE2 SHL DUP2 MSTORE PUSH1 0x1 PUSH1 0x1 PUSH1 0xA0 SHL SUB DUP5 DUP2 AND PUSH1 0x4 DUP4 ADD MSTORE PUSH1 0x24 DUP3 ADD DUP5 SWAP1 MSTORE CALLER PUSH1 0x44 DUP4 ADD MSTORE SWAP1 SWAP2 AND SWAP1 PUSH4 0x69328DEC SWAP1 PUSH1 0x64 ADD PUSH1 0x20 PUSH1 0x40 MLOAD DUP1 DUP4 SUB DUP2 PUSH1 0x0 DUP8 GAS CALL ISZERO DUP1 ISZERO PUSH2 0x993 JUMPI RETURNDATASIZE PUSH1 0x0 DUP1 RETURNDATACOPY RETURNDATASIZE PUSH1 0x0 REVERT JUMPDEST POP POP POP POP PUSH1 0x40 MLOAD RETURNDATASIZE PUSH1 0x1F NOT PUSH1 0x1F DUP3 ADD AND DUP3 ADD DUP1 PUSH1 0x40 MSTORE POP DUP2 ADD SWAP1 PUSH2 0x9B7 SWAP2 SWAP1 PUSH2 0xBD5 JUMP JUMPDEST POP PUSH1 0x1 PUSH1 0x1 PUSH1 0xA0 SHL SUB DUP3 AND PUSH1 0x0 SWAP1 DUP2 MSTORE PUSH1 0x3 PUSH1 0x20 SWAP1 DUP2 MSTORE PUSH1 0x40 DUP1 DUP4 KECCAK256 CALLER DUP5 MSTORE SWAP1 SWAP2 MSTORE DUP2 KECCAK256 DUP1 SLOAD DUP4 SWAP3 SWAP1 PUSH2 0x6C8 SWAP1 DUP5 SWAP1 PUSH2 0xBEE JUMP JUMPDEST PUSH1 0x0 DUP1 SLOAD PUSH1 0x1 PUSH1 0x1 PUSH1 0xA0 SHL SUB DUP4 DUP2 AND PUSH1 0x1 PUSH1 0x1 PUSH1 0xA0 SHL SUB NOT DUP4 AND DUP2 OR DUP5 SSTORE PUSH1 0x40 MLOAD SWAP2 SWAP1 SWAP3 AND SWAP3 DUP4 SWAP2 PUSH32 0x8BE0079C531659141344CD1FD0A4F28419497F9722A3DAAFE3B4186F6B6457E0 SWAP2 SWAP1 LOG3 POP POP JUMP JUMPDEST PUSH1 0x1 PUSH1 0x1 PUSH1 0xA0 SHL SUB DUP2 AND DUP2 EQ PUSH2 0x858 JUMPI PUSH1 0x0 DUP1 REVERT JUMPDEST PUSH1 0x0 DUP1 PUSH1 0x40 DUP4 DUP6 SUB SLT ISZERO PUSH2 0xA63 JUMPI PUSH1 0x0 DUP1 REVERT JUMPDEST DUP3 CALLDATALOAD PUSH2 0xA6E DUP2 PUSH2 0xA3B JUMP JUMPDEST SWAP2 POP PUSH1 0x20 DUP4 ADD CALLDATALOAD PUSH2 0xA7E DUP2 PUSH2 0xA3B JUMP JUMPDEST DUP1 SWAP2 POP POP SWAP3 POP SWAP3 SWAP1 POP JUMP JUMPDEST PUSH1 0x0 PUSH1 0x20 DUP3 DUP5 SUB SLT ISZERO PUSH2 0xA9B JUMPI PUSH1 0x0 DUP1 REVERT JUMPDEST POP CALLDATALOAD SWAP2 SWAP1 POP JUMP JUMPDEST PUSH1 0x0 DUP1 PUSH1 0x40 DUP4 DUP6 SUB SLT ISZERO PUSH2 0xAB5 JUMPI PUSH1 0x0 DUP1 REVERT JUMPDEST DUP3 CALLDATALOAD PUSH2 0xAC0 DUP2 PUSH2 0xA3B JUMP JUMPDEST SWAP5 PUSH1 0x20 SWAP4 SWAP1 SWAP4 ADD CALLDATALOAD SWAP4 POP POP POP JUMP JUMPDEST PUSH1 0x0 DUP1 PUSH1 0x0 PUSH1 0x60 DUP5 DUP7 SUB SLT ISZERO PUSH2 0xAE3 JUMPI PUSH1 0x0 DUP1 REVERT JUMPDEST DUP4 CALLDATALOAD PUSH2 0xAEE DUP2 PUSH2 0xA3B JUMP JUMPDEST SWAP3 POP PUSH1 0x20 DUP5 ADD CALLDATALOAD PUSH2 0xAFE DUP2 PUSH2 0xA3B JUMP JUMPDEST SWAP3 SWAP6 SWAP3 SWAP5 POP POP POP PUSH1 0x40 SWAP2 SWAP1 SWAP2 ADD CALLDATALOAD SWAP1 JUMP JUMPDEST PUSH1 0x0 PUSH1 0x20 DUP3 DUP5 SUB SLT ISZERO PUSH2 0xB21 JUMPI PUSH1 0x0 DUP1 REVERT JUMPDEST DUP2 CALLDATALOAD PUSH2 0xB2C DUP2 PUSH2 0xA3B JUMP JUMPDEST SWAP4 SWAP3 POP POP POP JUMP JUMPDEST PUSH1 0x0 PUSH1 0x20 DUP3 DUP5 SUB SLT ISZERO PUSH2 0xB45 JUMPI PUSH1 0x0 DUP1 REVERT JUMPDEST DUP2 MLOAD PUSH2 0xB2C DUP2 PUSH2 0xA3B JUMP JUMPDEST PUSH1 0x20 DUP1 DUP3 MSTORE DUP2 DUP2 ADD MSTORE PUSH32 0x4F776E61626C653A2063616C6C6572206973206E6F7420746865206F776E6572 PUSH1 0x40 DUP3 ADD MSTORE PUSH1 0x60 ADD SWAP1 JUMP JUMPDEST PUSH1 0x0 PUSH1 0x20 DUP3 DUP5 SUB SLT ISZERO PUSH2 0xB97 JUMPI PUSH1 0x0 DUP1 REVERT JUMPDEST DUP2 MLOAD DUP1 ISZERO ISZERO DUP2 EQ PUSH2 0xB2C JUMPI PUSH1 0x0 DUP1 REVERT JUMPDEST PUSH4 0x4E487B71 PUSH1 0xE0 SHL PUSH1 0x0 MSTORE PUSH1 0x11 PUSH1 0x4 MSTORE PUSH1 0x24 PUSH1 0x0 REVERT JUMPDEST PUSH1 0x0 DUP3 NOT DUP3 GT ISZERO PUSH2 0xBD0 JUMPI PUSH2 0xBD0 PUSH2 0xBA7 JUMP JUMPDEST POP ADD SWAP1 JUMP JUMPDEST PUSH1 0x0 PUSH1 0x20 DUP3 DUP5 SUB SLT ISZERO PUSH2 0xBE7 JUMPI PUSH1 0x0 DUP1 REVERT JUMPDEST POP MLOAD SWAP2 SWAP1 POP JUMP JUMPDEST PUSH1 0x0 DUP3 DUP3 LT ISZERO PUSH2 0xC00 JUMPI PUSH2 0xC00 PUSH2 0xBA7 JUMP JUMPDEST POP SUB SWAP1 JUMP INVALID LOG2 PUSH5 0x6970667358 0x22 SLT KECCAK256 PUSH24 0xAC4BC0150A1DCB4BFBBCB27655C8BE741C3D6B6FD880DF13 EQ 0xB7 CODESIZE 0x25 EXTCODESIZE 0xB0 0xCD PUSH5 0x736F6C6343 STOP ADDMOD EXP STOP CALLER ",
  "sha1": "7f75241f4e08d51c82da8edd329848b540f5ff40",
  "source": "// SPDX-License-Identifier: MIT\n\npragma solidity 0.8.10;\n\nimport \"@openzeppelin/contracts/access/Ownable.sol\";\nimport \"@openzeppelin/contracts/token/ERC20/IERC20.sol\";\nimport '@aave/contracts/interfaces/ILendingPoolAddressesProvider.sol';\nimport '@aave/contracts/interfaces/ILendingPool.sol';\n\n\ncontract ContributorLender is Ownable {\n\n    address public admin;\n    address[] public contributors;\n    mapping(address => mapping(address => uint256)) public contributions;\n    address public poolAddress;\n    ILendingPool public lendingPool;\n    ILendingPoolAddressesProvider public poolProvider;\n\n    constructor() public {\n        admin = msg.sender;\n    }\n\n    // set pool provider\n    function setPoolProvider(address _poolProvider) public onlyOwner {\n        poolProvider = ILendingPoolAddressesProvider(_poolProvider);\n    }\n\n    // get lending pool\n    function getLendingPool() public returns(ILendingPool) {\n        poolAddress = poolProvider.getLendingPool();\n        return ILendingPool(poolAddress);\n    }\n\n    // UNUSED: user can deposits funds\n    function contribute(address _token, uint256 _amount) public {\n        require(_amount > 0, \"You need to spend something.\");\n        IERC20(_token).transferFrom(msg.sender, address(this), _amount);\n        contributors.push(msg.sender);\n        contributions[_token][msg.sender] += _amount;\n    }\n\n    // let user deposit fund to Aave but aTokens goes to Treasury until withdrawal\n    function poolDeposit(address _token, uint256 _amount) public {\n        require(_amount > 0, \"You need to spend something.\");\n        IERC20(_token).transferFrom(msg.sender, address(this), _amount);\n        contributors.push(msg.sender);\n        contributions[_token][msg.sender] += _amount;\n        lendingPool = getLendingPool();\n        IERC20(_token).approve(address(lendingPool), _amount);\n        lendingPool.deposit(_token, _amount, address(this), 0);\n    }\n\n    // refund user MAX based on what he has contributed\n    function poolRefund(address _token, uint256 _amount) public {\n        require(_amount > 0, \"You need to withdraw something.\");\n        require(contributions[_token][msg.sender] >= _amount, \"You cannot withdraw more than what you contributed!\");\n        lendingPool.withdraw(_token, _amount, msg.sender);\n        contributions[_token][msg.sender] -= _amount;\n    }\n\n    // DAO distributes to someone\n    function distribute(address _token, address _beneficiary, uint256 _amount) public onlyOwner {\n        IERC20(_token).transfer(_beneficiary, _amount);\n    }\n\n}\n",
  "sourcePath": "contracts/Lender.sol",
  "type": "contract"
}